S01500005072654C6162345F4D4943524F2E73726563CC
S11300000C9434000C9446000C9446000C94460066
S11300100C9465000C9446000C9446000C94460025
S11300200C9446000C9446000C9446000C94460034
S11300300C9446000C9446000C9446000C94460024
S11300400C9446000C9446000C9446000C94460014
S11300500C9446000C9446000C9446000C94460004
S11300600C9446000C94460011241FBECFEFD8E038
S1130070DEBFCDBF21E0A0E0B1E001C01D92A13000
S1130080B207E1F70E945F000C9493000C94000007
S1130090F8941092C1008FEF8AB91BB887B187B961
S11300A088B1836088B9E8E6F0E08081826080836B
S11300B0ECE6F0E0808183608083789408950E9468
S11300C04800809100018BB9FCCF1F920F920FB6AC
S11300D00F9211248F93309906C0809100018F5F95
S11300E0809300011AC0319906C0809100018150AB
S11300F08093000112C0309907C0809100018F3FA6
S113010019F41092000109C0319907C080910001CF
S11301108F3F19F48EEF809300018F910F900FBEE3
S10D01200F901F901895F894FFCF7C
S9030000FC
